:100000000C9434000C9451010C9451000C94510048
:100010000C9451000C9451000C9451000C9451001C
:100020000C9451000C9451000C9451000C9451000C
:100030000C9451000C94B2010C9451000C9451009A
:100040000C9451000C9451000C9451000C945100EC
:100050000C9451000C9451000C9451000C945100DC
:100060000C9451000C94510011241FBECFEFD8E026
:10007000DEBFCDBF11E0A0E0B1E0ECEEF3E002C0E6
:1000800005900D92A230B107D9F721E0A2E0B1E0CE
:1000900001C01D92AB30B207E1F70E9487000C94BB
:1000A000F4010C940000219A559A29985D980895BE
:1000B000613069F018F0623099F00895882319F0E2
:1000C000813019F00895299808955D98089588233E
:1000D00019F0813019F00895299A08955D9A0895CC
:1000E000882319F0813031F0089595B182E0892795
:1000F00085B908959BB180E289278BB908950E9444
:1001000053000E94D8010E94330178940895D0E0F2
:10011000C1E012E0D13059F120F0D23009F459C0D9
:10012000F9CF0E947F006C2F80E00E9458006C2F56
:100130008C2F0E9458002FEF83ED90E321508040D8
:100140009040E1F700C0000060E080E00E945800AD
:1001500060E08C2F0E9458002FEF83ED90E3215038
:1001600080409040E1F700C00000DC2FD3CF8091A9
:100170000001882349F06C2F80E00E94580060E065
:100180008C2F0E94580008C060E080E00E94580058
:100190006C2F8C2F0E945800809100018C27809337
:1001A00000012FEF81EE94E0215080409040E1F774
:1001B00000C000000E944E01882309F4ABCF60E02C
:1001C00080E00E94580060E08C2F0E945800D12FE0
:1001D000A1CF0E944E018823A1F10E944901873DD1
:1001E00026E0920748F06C2F80E00E94DD016C2F22
:1001F00080E00E9458008ECF823E944088F46C2F9D
:1002000080E00E94DD016C2F8C2F0E94DD016C2F9D
:1002100080E00E9458006C2F8C2F0E9458007ACFEB
:1002200060E080E00E94DD0160E08C2F0E94DD0133
:1002300060E080E00E94580060E08C2F0E9458002F
:1002400069CF60E080E00E94DD0160E08C2F0E94B9
:10025000DD0160E080E00E94580060E08C2F0E9489
:100260005800DC2F57CF52985A9AE9E6F0E0808187
:100270008C70808380818360808381E08DBB10924D
:1002800085001092840080936F0083E0809381004A
:1002900008958091080190910901089580910A01C3
:1002A00008951F920F920FB60F9211242F933F9330
:1002B0004F938F939F93EF93FF938091060181114A
:1002C00014C08091840090918500909305018093E3
:1002D000040181E080930601E9E6F0E080818C7002
:1002E000808380818260808331C0813079F5809104
:1002F00084009091850090930301809302011092F5
:100300000601E9E6F0E080818C7080838081836063
:10031000808380910201909103012091040130912A
:100320000501821B930B880F991F880F991F9C0151
:10033000285E3340293E334048F49093090180936E
:100340000801E7E0F1E080818F5F8083FF91EF910A
:100350009F918F914F913F912F910F900FBE0F90D2
:100360001F9018951F920F920FB60F9211248F9322
:10037000EF93FF93809107018A3068F41092060191
:10038000E9E6F0E080818C708083808183608083E7
:1003900010920A0103C081E080930A0110920701C4
:1003A000FF91EF918F910F900FBE0F901F901895B6
:1003B000229A569A2A985E980895662319F0613019
:1003C00051F00895882319F0813019F008952A9882
:1003D00008955E980895882319F0813019F00895E2
:0C03E0002A9A08955E9A0895F894FFCFC1
:0203EC0001000E
:00000001FF
